:100000000C942A000C9447000C9447000C94470071
:100010000C9447000C9447000C9447000C94430D3B
:100020000C9447000C94100D0C9447000C9447005E
:100030000C9447000C9447000C9447000C94470024
:100040000C9447000C9447000C9447000C94470014
:100050000C94470011241FBECFE5D8E0DEBFCDBF12
:1000600010E0A0E6B0E0E6E0F0E202C005900D92FC
:10007000AC37B107D9F710E0ACE7B0E001C01D9292
:10008000AF37B107E1F70E94CC050C9401100C9436
:100090000000EF92FF920F931F937B018C0120E0F1
:1000A00030E040E05FE40E94490388238CF0C801FF
:1000B000B70120E030E040E05FE40E94C1010E940F
:1000C000A9039B01AC01205030404040504806C07D
:1000D000C801B7010E94A9039B01AC01B901CA0183
:1000E0001F910F91FF90EF900895A0E0B0E0EBE733
:1000F000F0E00C94C10FDC012B01FA019C919230CD
:1001000008F439C1EB018881823008F433C194309E
:1001100069F4843009F02FC111969C91119789815F
:10012000981709F428C1A0E6B0E025C1843009F48D
:1001300021C18230A9F4923009F01DC19A01AD01AC
:1001400088E0EA010990AE01E90109929E0181501F
:10015000C1F7E201898111969C918923818308C1AD
:10016000923009F407C112962D903C901397EB0141
:100170008A819B811496AD90BD90CD90DC901797AD
:10018000EC80FD800E811F819101281B390BB90184
:1001900037FF04C066277727621B730B6032710537
:1001A0000CF061C0121613066CF537014801062EDB
:1001B00004C096948794779467940A94D2F721E0C8
:1001C00030E040E050E004C0220F331F441F551FB1
:1001D0006A95D2F721503040404050402E213F21B7
:1001E00040235123211531054105510521F021E01E
:1001F00030E040E050E079018A01E628F72808293C
:1002000019293CC0232BD1F1260E371E350146019A
:10021000062E04C096948794779467940A94D2F734
:1002200021E030E040E050E004C0220F331F441FC3
:10023000551F6A95D2F721503040404050402A2146
:100240003B214C215D21211531054105510521F04E
:1002500021E030E040E050E059016A01A628B728CB
:10026000C828D9280BC0821593052CF01C01AA249C
:10027000BB24650103C0EE24FF24870111969C91E5
:10028000D20111968C91981709F445C0992339F041
:10029000A80197012A193B094C095D0906C0A6016E
:1002A00095012E193F09400B510B57FD08C01182D3
:1002B0003382228224833583468357831DC081E0A5
:1002C00081833382228288279927DC01821B930B4A
:1002D000A40BB50B84839583A683B7830DC0220F2F
:1002E000331F441F551F24833583468357838281E0
:1002F000938101979383828324813581468157813D
:10030000DA01C9010197A109B1098F5F9F4FAF4F72
:10031000BF4328F30BC0918333822282EA0CFB1C7B
:100320000C1D1D1DE482F5820683178383E0808304
:10033000248135814681578157FF1AC0C901AA27F8
:1003400097FDA095BA2F81709070A070B0705695EF
:10035000479537952795822B932BA42BB52B848318
:100360009583A683B7838281938101969383828349
:10037000DF0101C0D201CD01CDB7DEB7E2E10C94BF
:10038000DD0FA0E2B0E0E7ECF1E00C94CD0F698363
:100390007A838B839C832D833E834F835887E9E048
:1003A000EE2EF12CEC0EFD1ECE010196B7010E943F
:1003B000D2048E010F5E1F4FCE010596B8010E9438
:1003C000D2048A8991E089278A8BC701B801AE01DE
:1003D000475E5F4F0E9475000E94FD03A096E6E015
:1003E0000C94E90FA0E2B0E0E8EFF1E00C94CD0F3F
:1003F00069837A838B839C832D833E834F835887C5
:10040000F9E0EF2EF12CEC0EFD1ECE010196B701A6
:100410000E94D2048E010F5E1F4FCE010596B801D7
:100420000E94D204C701B801AE01475E5F4F0E942F
:1004300075000E94FD03A096E6E00C94E90FA0E28F
:10044000B0E0E5E2F2E00C94C10F69837A838B831C
:100450009C832D833E834F835887CE010196BE0136
:10046000675F7F4F0E94D204CE010596BE016F5E8A
:100470007F4F0E94D2049985923088F0898982301A
:10048000C8F0943019F4823051F404C0843029F457
:10049000923081F480E690E0C6C0923049F420E0CA
:1004A0009A858A89981321E02A87CE010996BBC0D4
:1004B000823049F420E09A858A89981321E02A8BBA
:1004C000CE014196B0C02D843E844F8458886D88FB
:1004D0007E888F88988CEE24FF248701AA24BB2471
:1004E000650140E050E060E070E0E0E0F0E0C10174
:1004F00081709070892BE9F0E60CF71C081D191D1E
:100500009A01AB012A0D3B1D4C1D5D1D80E090E062
:10051000A0E0B0E0E614F7040805190520F481E036
:1005200090E0A0E0B0E0BA01A901480F591F6A1F8E
:100530007B1FAA0CBB1CCC1CDD1C97FE08C081E0F5
:1005400090E0A0E0B0E0A82AB92ACA2ADB2A3196B6
:10055000E032F10549F0660C771C881C991C569412
:10056000479437942794C3CFFA85EA892B893C892D
:100570008B859C85280F391F2E5F3F4F17C0CA01FE
:1005800081709070892B61F016950795F794E79428
:1005900080E090E0A0E0B0E8E82AF92A0A2B1B2BC3
:1005A00076956795579547952F5F3F4F77FDE7CF36
:1005B0000CC0440F551F661F771F17FD4160EE0CDE
:1005C000FF1C001F111F21503040403090E05907A0
:1005D00090E0690790E4790760F32B8F3C8FDB0193
:1005E000CA018F779070A070B07080349105A1051A
:1005F000B10561F447FD0AC0E114F10401051105DC
:1006000029F0405C5F4F6F4F7F4F40781A8EFE1786
:1006100011F081E08A8F4D8F5E8F6F8F78A383E01A
:10062000898FCE0149960E94FD03A096E2E10C94C9
:10063000DD0FA8E1B0E0EFE1F3E00C94CD0F6983AA
:100640007A838B839C832D833E834F83588789E0F5
:10065000E82EF12CEC0EFD1ECE010196B7010E9492
:10066000D2048E010F5E1F4FCE010596B8010E9485
:10067000D2048985823040F08989823028F0C70110
:10068000B8010E944A0501C08FEF6896E6E00C941D
:10069000E90FA8E1B0E0EFE4F3E00C94CD0F69833B
:1006A0007A838B839C832D833E834F83588789E095
:1006B000E82EF12CEC0EFD1ECE010196B7010E9432
:1006C000D2048E010F5E1F4FCE010596B8010E9425
:1006D000D2048985823040F08989823028F0C701B0
:1006E000B8010E944A0501C08FEF6896E6E00C94BD
:1006F000E90FA8E1B0E0EFE7F3E00C94CD0F6983D8
:100700007A838B839C832D833E834F83588789E034
:10071000E82EF12CEC0EFD1ECE010196B7010E94D1
:10072000D2048E010F5E1F4FCE010596B8010E94C4
:10073000D2048985823040F08989823028F0C7014F
:10074000B8010E944A0501C081E06896E6E00C9479
:10075000E90FACE0B0E0EFEAF3E00C94D10F69836D
:100760007A838B839C83CE010196BE016B5F7F4FA2
:100770000E94D2048D81823061F1823050F1843048
:1007800021F48E81882351F12EC02F81388537FDC9
:1007900020C06E812F3131051CF06623F9F023C093
:1007A0008EE190E0821B930B29853A854B855C8511
:1007B00004C056954795379527958A95D2F76623B5
:1007C000B1F050954095309521953F4F4F4F5F4F79
:1007D0000EC020E030E040E050E009C02FEF3FEFD6
:1007E0004FEF5FE704C020E030E040E050E8B9019F
:1007F000CA012C96E2E00C94ED0FDF92EF92FF928B
:100800000F931F93FC01E480F58006811781D1804E
:100810008081823048F480E090E0A0E1B0E0E82AF6
:10082000F92A0A2B1B2BA5C0843009F49FC0823003
:1008300021F4EE24FF24870105C0E114F104010531
:10084000110519F4E0E0F0E096C0628173819FEF3A
:10085000623879070CF05BC022E83FEF261B370BAC
:100860002A3131052CF020E030E040E050E02AC091
:10087000B801A701022E04C0769567955795479554
:100880000A94D2F781E090E0A0E0B0E004C0880FC5
:10089000991FAA1FBB1F2A95D2F70197A109B10979
:1008A0008E219F21A023B1230097A105B10521F03E
:1008B00081E090E0A0E0B0E09A01AB01282B392B59
:1008C0004A2B5B2BDA01C9018F779070A070B07052
:1008D00080349105A105B10539F427FF09C0205CDA
:1008E0003F4F4F4F5F4F04C0215C3F4F4F4F5F4F13
:1008F000E0E0F0E02030A0E03A07A0E04A07A0E402
:100900005A0710F0E1E0F0E079018A0127C0603871
:10091000710564F5FB01E158FF4FD801C7018F77DE
:100920009070A070B07080349105A105B10539F4C4
:10093000E7FE0DC080E490E0A0E0B0E004C08FE3EB
:1009400090E0A0E0B0E0E80EF91E0A1F1B1F17FFA1
:1009500005C016950795F794E794319687E01695AC
:100960000795F794E7948A95D1F705C0EE24FF2404
:100970008701EFEFF0E06E2F679566276795902F60
:100980009F77D794DD24D7948E2F8695492F462BB9
:10099000582F5D29B701CA011F910F91FF90EF9069
:1009A000DF900895FC01DB01408151812281622F9B
:1009B0006F7770E0221F2227221F9381892F880FD3
:1009C000822B282F30E0991F9927991F11969C930D
:1009D000119721153105A9F54115510561057105DD
:1009E00011F482E037C082E89FEF13969C938E93B8
:1009F00012979A01AB0167E0220F331F441F551F66
:100A00006A95D1F783E08C930DC0220F331F441FEA
:100A1000551F12968D919C911397019713969C9355
:100A20008E931297203080E0380780E0480780E4FA
:100A3000580758F314962D933D934D935C93179755
:100A400008952F3F310579F4411551056105710570
:100A500019F484E08C93089564FF03C081E08C93C3
:100A600012C01C9210C02F57304013963C932E9307
:100A7000129783E08C9387E0440F551F661F771F02
:100A80008A95D1F7706414964D935D936D937C9322
:100A9000179708951F93DC01FB019C91923008F495
:100AA00047C08081823008F443C0943051F41196DD
:100AB0001C91843099F58181682F70E0611B710968
:100AC0003FC0843021F0923031F48230B9F181811D
:100AD000882389F12DC011961C9111978230F1F075
:100AE00081811817D9F412962D913C911397828128
:100AF00093818217930794F028173907BCF0149656
:100B00008D919D910D90BC91A02D248135814681C0
:100B10005781281739074A075B0718F4112341F05A
:100B20000AC082179307A407B50740F4112319F0F0
:100B300061E070E005C06FEF7FEF02C060E070E041
:100B4000CB011F910895DF93CF93CDB7DEB782E03D
:100B500063E041E00E94B10982E063E040E00E946E
:100B60009C0ACF91DF910895DF93CF93CDB7DEB785
:100B700082E063E041E00E949C0ACF91DF910895FA
:100B8000DF93CF93CDB7DEB782E063E040E00E9411
:100B90009C0ACF91DF910895DF93CF93CDB7DEB755
:100BA00061970FB6F894DEBF0FBECDBF9E012E5FDA
:100BB0003F4F3E872D8788E690E0988B8F8797E0A0
:100BC000998BEF85F88900802F8538892F5F3F4FFB
:100BD000388B2F87ED85FE8500822D853E852F5F22
:100BE0003F4F3E872D8739893150398B898988233A
:100BF00041F781E0898782E08A87AFE5B0E0EFE5E1
:100C0000F0E0808180688C930E9496080E94A30582
:100C1000CE0102960E947F0ECE0109960E94F80D29
:100C20000E946D060E94100F89838981E82FF0E0F1
:100C3000FC87EB872B853C8521313105F9F08B85CD
:100C40009C858231910534F4EB85FC85E031F1051A
:100C500061F0E8CF2B853C852231310549F08B8549
:100C60009C858331910539F0DDCF0E941B07DACFD7
:100C70000E94D007D7CF0E946D06D4CF0E944308B0
:100C8000D1CFDF93CF93CDB7DEB729970FB6F894C6
:100C9000DEBF0FBECDBF98878F838F8198850E945E
:100CA000480FCE0101960E94480F8F8198859E01C2
:100CB0002F5F3F4FB9010E94F80F009719F481E0B0
:100CC000898701C01986898529960FB6F894DEBFF9
:100CD0000FBECDBFCF91DF910895DF93CF93CDB7F6
:100CE000DEB765970FB6F894DEBF0FBECDBF03C069
:100CF00086E40E94F90ECE0140960E9441068823A8
:100D0000B9F383E50E94F90E1F8688C08F85882F6E
:100D100090E08F5E9C4FAC018F85282F30E0CE0194
:100D20004096FC01E20FF31F2081CA01622F0E944E
:100D3000100980E090E0A0E2B1E48B879C87AD874A
:100D4000BE876B857C858D859E8520E030E04AEFEF
:100D500054E40E941F02DC01CB018F839887A9878E
:100D6000BA876F81788589859A8520E030E040E8F0
:100D70005FE30E94790388232CF481E090E09E8356
:100D80008D833FC06F81788589859A8520E03FEF0C
:100D90004FE757E40E94190318164CF56B857C85C4
:100DA0008D859E8520E030E040E251E40E941F02E4
:100DB000DC01CB01BC01CD010E944900DC01CB016B
:100DC0009E838D830FC088EC90E09C838B838B8106
:100DD0009C810197F1F79C838B838D819E81019784
:100DE0009E838D838D819E81009769F714C06F81EA
:100DF000788589859A850E944900DC01CB019E8314
:100E00008D838D819E819A83898389819A810197BF
:100E1000F1F79A8389838F858F5F8F878F858630DF
:100E200008F474CF65960FB6F894DEBF0FBECDBF41
:100E3000CF91DF910895DF93CF93CDB7DEB76B9756
:100E40000FB6F894DEBF0FBECDBFCE0146960E940E
:100E5000480F1F8687C08F85882F90E08F5E9C4F3C
:100E6000AC018F85882F90E09E01205F3F4F280FB7
:100E7000391FCA01B9010E94510980E090E0A0E247
:100E8000B1E48B879C87AD87BE876B857C858D851C
:100E90009E8520E030E04AEF54E40E941F02DC010E
:100EA000CB018F839887A987BA876F8178858985D9
:100EB0009A8520E030E040E85FE30E9479038823D0
:100EC0002CF481E090E09E838D833FC06F81788514
:100ED00089859A8520E03FEF4FE757E40E94190388
:100EE00018164CF56B857C858D859E8520E030E05D
:100EF00040E251E40E941F02DC01CB01BC01CD01A4
:100F00000E944900DC01CB019E838D830FC088ECD9
:100F100090E09C838B838B819C810197F1F79C836C
:100F20008B838D819E8101979E838D838D819E8190
:100F3000009769F714C06F81788589859A850E942A
:100F40004900DC01CB019E838D838D819E819A8334
:100F5000898389819A810197F1F79A8389838F85A3
:100F60008F5F8F878F85863008F475CFCE014096CE
:100F70009E012A5E3F4FB9010E94F80F009721F4AD
:100F800083E50E94F90E03C086E40E94F90E6B9679
:100F90000FB6F894DEBF0FBECDBFCF91DF9108959D
:100FA000DF93CF93CDB7DEB72B970FB6F894DEBFA4
:100FB0000FBECDBFCE01019698878F83EFE6F0E09C
:100FC000FA87E987F6E0FB87E985FA85008089855D
:100FD0009A8501969A878987EF81F88500828F81AB
:100FE0009885019698878F839B8591509B87EB8589
:100FF000EE2351F78AE898E00E94E60D81E064E66E
:101000000E94B108CE0101960E94760D80917C006D
:101010008230E1F70E94D20D10927C0080E060E007
:101020000E94B1088DE89BE59C838B83CE010196DD
:101030000E94760D80917C008130E1F70E94D20DF4
:1010400010927C0082E064E60E94B10881EE94EE8A
:101050009C838B83CE0101960E94760D80917C004B
:101060008230E1F70E94D20D10927C0080E060E0B7
:101070000E94B1082B960FB6F894DEBF0FBECDBF0D
:10108000CF91DF910895DF93CF93CDB7DEB72B9744
:101090000FB6F894DEBF0FBECDBFCE010196988784
:1010A0008F83E5E7F0E0FA87E987F6E0FB87E985DB
:1010B000FA85008089859A8501969A878987EF81CC
:1010C000F88500828F819885019698878F839B850C
:1010D00091509B87EB85EE2351F78AE898E00E94B8
:1010E000E60D0E94B405CE0101960E94760D809116
:1010F0007C008A30E1F70E94D20D10927C000E94A1
:10110000C0052B960FB6F894DEBF0FBECDBFCF91B2
:10111000DF910895DF93CF93CDB7DEB780917C0048
:101120008F5F80937C00CF91DF910895DF93CF9301
:10113000CDB7DEB781E060E041E00E94B10981E017
:1011400061E041E00E94B10981E060E040E00E947E
:101150009C0A81E061E040E00E949C0ACF91DF910F
:101160000895DF93CF9300D000D00F92CDB7DEB7B4
:101170008A836B838B81482F50E0CA019C01220F28
:10118000331FC9019695982F882797958795821BBD
:10119000930B840F951F24E630E0B9010E948B0F5A
:1011A000CB01898389810E94EF0C8A81282F30E04E
:1011B0003D832C838C819D8181309105A1F02C8110
:1011C0003D8122303105D1F08C819D81009701F560
:1011D00081E060E040E00E949C0A81E061E040E044
:1011E0000E949C0A15C081E060E041E00E949C0AD8
:1011F00081E061E040E00E949C0A0AC081E060E07A
:1012000040E00E949C0A81E061E041E00E949C0A6B
:101210000F900F900F900F900F90CF91DF91089546
:10122000DF93CF9300D000D0CDB7DEB79A83898308
:101230006B830E94180E0E94700E883011F01C8281
:1012400028C089819A8180709770880F892F881FA4
:10125000990B9195806A0E94330E0E94700E88311E
:1012600011F01C8216C089810E94330E0E94700EFC
:10127000883211F01C820DC08B810E94330E0E94B7
:10128000700E883211F01C8204C00E94280E81E08A
:101290008C838C810F900F900F900F90CF91DF91E6
:1012A0000895DF93CF9300D000D00F92CDB7DEB773
:1012B0009A8389837C836B830E94180E0E94700E30
:1012C000883011F01D8244C089819A8180709770A6
:1012D000880F892F881F990B9195806A0E94330E81
:1012E0000E94700E883111F01D8232C089810E94E7
:1012F000330E0E94700E883211F01D8229C00E94A8
:10130000180E0E94700E803111F01D8221C089815B
:101310009A8180709770880F892F881F990B9195FB
:10132000816A0E94330E0E94700E803411F01D827B
:101330000FC00E945D0EEB81FC8180830E94700EC5
:10134000883511F01D8204C00E94280E81E08D8333
:101350008D810F900F900F900F900F90CF91DF9194
:101360000895DF93CF9300D000D00F92CDB7DEB7B2
:1013700089836A834B838A81883008F0D5C089814C
:10138000843008F0D1C08981282F30E03D832C8340
:101390008C819D818130910509F443C02C813D8170
:1013A000223031052CF48C819D81009771F0BCC0F6
:1013B0002C813D812230310509F45FC08C819D81F3
:1013C0008330910509F485C0AFC08B818130A1F4D1
:1013D000AAE3B0E0EAE3F0E08081482F8A81282F79
:1013E00030E081E090E0022E02C0880F991F0A943D
:1013F000E2F7842B8C9398C0AAE3B0E0EAE3F0E034
:101400008081482F8A81282F30E081E090E0022EF1
:1014100002C0880F991F0A94E2F7809584238C9369
:1014200083C08B818130A1F4A7E3B0E0E7E3F0E073
:101430008081482F8A81282F30E081E090E0022EC1
:1014400002C0880F991F0A94E2F7842B8C936CC01A
:10145000A7E3B0E0E7E3F0E08081482F8A81282FFE
:1014600030E081E090E0022E02C0880F991F0A94BC
:10147000E2F7809584238C9357C08B818130A1F44F
:10148000A4E3B0E0E4E3F0E08081482F8A81282FD4
:1014900030E081E090E0022E02C0880F991F0A948C
:1014A000E2F7842B8C9340C0A4E3B0E0E4E3F0E0E7
:1014B0008081482F8A81282F30E081E090E0022E41
:1014C00002C0880F991F0A94E2F7809584238C93B9
:1014D0002BC08B818130A1F4A1E3B0E0E1E3F0E027
:1014E0008081482F8A81282F30E081E090E0022E11
:1014F00002C0880F991F0A94E2F7842B8C9314C0C2
:10150000A1E3B0E0E1E3F0E08081482F8A81282F59
:1015100030E081E090E0022E02C0880F991F0A940B
:10152000E2F7809584238C930F900F900F900F908B
:101530000F90CF91DF910895DF93CF9300D000D02B
:101540000F92CDB7DEB789836A834B838A81883057
:1015500008F0D5C08981843008F0D1C08981282F56
:1015600030E03D832C838C819D818130910509F48D
:1015700043C02C813D81223031052CF48C819D812A
:10158000009771F0BCC02C813D812230310509F4F7
:101590005FC08C819D818330910509F485C0AFC007
:1015A0008B818130A1F4ABE3B0E0EBE3F0E080812C
:1015B000482F8A81282F30E081E090E0022E02C07F
:1015C000880F991F0A94E2F7842B8C9398C0ABE3A1
:1015D000B0E0EBE3F0E08081482F8A81282F30E0F3
:1015E00081E090E0022E02C0880F991F0A94E2F772
:1015F000809584238C9383C08B818130A1F4A8E3F0
:10160000B0E0E8E3F0E08081482F8A81282F30E0C5
:1016100081E090E0022E02C0880F991F0A94E2F741
:10162000842B8C936CC0A8E3B0E0E8E3F0E0808109
:10163000482F8A81282F30E081E090E0022E02C0FE
:10164000880F991F0A94E2F7809584238C9357C0E2
:101650008B818130A1F4A5E3B0E0E5E3F0E0808187
:10166000482F8A81282F30E081E090E0022E02C0CE
:10167000880F991F0A94E2F7842B8C9340C0A5E34E
:10168000B0E0E5E3F0E08081482F8A81282F30E048
:1016900081E090E0022E02C0880F991F0A94E2F7C1
:1016A000809584238C932BC08B818130A1F4A2E39D
:1016B000B0E0E2E3F0E08081482F8A81282F30E01B
:1016C00081E090E0022E02C0880F991F0A94E2F791
:1016D000842B8C9314C0A2E3B0E0E2E3F0E08081BD
:1016E000482F8A81282F30E081E090E0022E02C04E
:1016F000880F991F0A94E2F7809584238C930F90AA
:101700000F900F900F900F90CF91DF910895DF937E
:10171000CF9300D000D00F92CDB7DEB78A836B8312
:1017200019828B81883008F084C08A81843008F067
:1017300080C08A81282F30E03D832C834C815D81DD
:101740004130510579F18C819D818230910534F4CD
:101750002C813D812115310569F06BC04C815D8183
:1017600042305105B9F18C819D818330910509F496
:1017700049C05FC0E9E3F0E08081282F30E08B8131
:10178000882F90E0A90102C0559547958A95E2F708
:10179000CA0181709070882319F081E0898349C063
:1017A000198247C0E6E3F0E08081282F30E08B818A
:1017B000882F90E0A90102C0559547958A95E2F7D8
:1017C000CA0181709070882319F081E0898331C04B
:1017D00019822FC0E3E3F0E08081282F30E08B8175
:1017E000882F90E0A90102C0559547958A95E2F7A8
:1017F000CA0181709070882319F081E0898319C033
:10180000198217C0E0E3F0E08081282F30E08B815F
:10181000882F90E0A90102C0559547958A95E2F777
:10182000CA0181709070882319F081E0898301C01A
:10183000198289810F900F900F900F900F90CF9188
:10184000DF910895DF93CF9300D000D0CDB7DEB7FE
:1018500089836A838981843090F58981282F30E0DB
:101860003C832B838B819C8181309105D1F02B812E
:101870003C81223031052CF48B819C81009761F0F2
:101880001EC02B813C812230310581F08B819C81EF
:101890008330910581F013C0EAE3F0E08A81808310
:1018A0000EC0E7E3F0E08A81808309C0E4E3F0E062
:1018B0008A81808304C0E1E3F0E08A8180830F9015
:1018C0000F900F900F90CF91DF910895DF93CF93FA
:1018D00000D000D0CDB7DEB789836A838981843098
:1018E00090F58981282F30E03C832B838B819C816C
:1018F00081309105D1F02B813C81223031052CF4CF
:101900008B819C81009761F01EC02B813C8122302D
:10191000310581F08B819C818330910581F013C06A
:10192000EBE3F0E08A8180830EC0E8E3F0E08A8197
:10193000808309C0E5E3F0E08A81808304C0E2E3AC
:10194000F0E08A8180830F900F900F900F90CF91DD
:10195000DF910895DF93CF9300D000D0CDB7DEB7ED
:101960008A8319828A81843090F58A81282F30E019
:101970003C832B838B819C8181309105D1F02B811D
:101980003C81223031052CF48B819C81009761F0E1
:101990001EC02B813C812230310581F08B819C81DE
:1019A0008330910581F013C0E9E3F0E08081898301
:1019B0000EC0E6E3F0E08081898309C0E3E3F0E054
:1019C0008081898304C0E0E3F0E08081898389819C
:1019D0000F900F900F900F90CF91DF910895DF93AC
:1019E000CF930F92CDB7DEB789838981882321F405
:1019F000E3E5F0E0108210C081E063E041E00E9486
:101A0000B109E2E5F0E01082ECE5F0E08981808345
:101A1000E3E5F0E08AE680830F90CF91DF910895AF
:101A20001F920F920FB60F9211242F933F934F9353
:101A30005F936F937F938F939F93AF93BF93EF9336
:101A4000FF93DF93CF93CDB7DEB780917D00909168
:101A50007E00009729F0E0917D00F0917E000995CD
:101A6000CF91DF91FF91EF91BF91AF919F918F91B6
:101A70007F916F915F914F913F912F910F900FBE8A
:101A80000F901F9018951F920F920FB60F9211246E
:101A90002F933F934F935F936F937F938F939F9376
:101AA000AF93BF93EF93FF93DF93CF93CDB7DEB7A1
:101AB00080917D0090917E00009729F0E0917D005B
:101AC000F0917E000995CF91DF91FF91EF91BF9149
:101AD000AF919F918F917F916F915F914F913F91C6
:101AE0002F910F900FBE0F901F901895DF93CF93FB
:101AF00000D0CDB7DEB79A838983ACE4B0E0E9814A
:101B0000FA818081918111969C938E93AAE4B0E032
:101B1000E981FA818281938111969C938E93A9E544
:101B2000B0E0E9E5F0E08081482FE981FA81858124
:101B3000282F30E081E090E002C0880F991F2A959D
:101B4000E2F7842B8C93EFE4F0E08CE08083AEE44A
:101B5000B0E0EEE4F0E08081282F277EE981FA8171
:101B60008581882F90E08C709070959587959595DC
:101B70008795880F991F880F991F880F991F822BAF
:101B80008C93AEE4B0E0EEE4F0E08081982F987F93
:101B9000E981FA818481892B8C930F900F90CF91EA
:101BA000DF910895DF93CF93CDB7DEB7A9E5B0E01D
:101BB000E9E5F0E08081837C8C93EFE4F0E0108233
:101BC000EEE4F0E01082CF91DF910895DF93CF93A0
:101BD00000D0CDB7DEB79A83898389819A819093AB
:101BE0007E0080937D000F900F90CF91DF9108953C
:101BF000DF93CF9300D0CDB7DEB79A838983A0E27D
:101C0000B0E0E981FA8181818C93E1E2F0E0108219
:101C1000A2E2B0E0E981FA818081880F8C93E6E549
:101C2000F0E084E080830F900F90CF91DF910895D2
:101C3000DF93CF93CDB7DEB7E6E5F0E084EA8083AB
:101C4000E6E5F0E080818823DCF7CF91DF9108950D
:101C5000DF93CF93CDB7DEB7E6E5F0E084E980838C
:101C6000CF91DF910895DF93CF930F92CDB7DEB779
:101C70008983E3E2F0E089818083E6E5F0E084E8AF
:101C80008083E6E5F0E080818823DCF70F90CF9138
:101C9000DF910895DF93CF93CDB7DEB7E6E5F0E0AF
:101CA00084EC8083E6E5F0E080818823DCF7E3E2E2
:101CB000F0E08081CF91DF910895DF93CF93CDB78E
:101CC000DEB7E6E5F0E084E88083E6E5F0E08081D9
:101CD0008823DCF7E3E2F0E08081CF91DF91089583
:101CE000DF93CF930F92CDB7DEB7E1E2F0E08081D2
:101CF000887F898389810F90CF91DF910895DF9349
:101D0000CF9300D000D0CDB7DEB79C838B831A82EF
:101D10001982EBE2F0E082E08083EAE2F0E088E121
:101D20008083A0E4B0E0EB81FC818181882F90E08A
:101D30008370907082959295907F9827807F9827E6
:101D4000282F2068EB81FC818281882F90E0880F0A
:101D5000991F880F991F880F991F282BEB81FC81F1
:101D60008081882F90E083709070880F991F822B5C
:101D70008C93AAE2B0E0EAE2F0E08081982F9B7FAA
:101D8000EB81FC8180818470892B8C93EB81FC81B9
:101D900083819481A581B681880F991FAA1FBB1FDB
:101DA000880F991FAA1FBB1F880F991FAA1FBB1F4F
:101DB0009C01AD0180E092E1AAE7B0E0BC01CD0159
:101DC0000E949F0FDA01C90101979A838983E0E499
:101DD000F0E089819A81892F99278083E9E2F0E0F8
:101DE000898180830F900F900F900F90CF91DF919A
:101DF0000895DF93CF930F92CDB7DEB78983EBE2DF
:101E0000F0E08081882F90E0807290700097B9F3A5
:101E1000ECE2F0E0898180830F90CF91DF9108950B
:101E2000DF93CF93CDB7DEB7EBE2F0E0808188237C
:101E3000DCF7ECE2F0E08081CF91DF910895DF9351
:101E4000CF9300D00F92CDB7DEB79B838A831982E0
:101E50000EC08981282F30E08A819B81FC01E20F2E
:101E6000F31F80810E94F90E89818F5F89838981A8
:101E7000282F30E08A819B81FC01E20FF31F8081D3
:101E8000882339F70F900F900F90CF91DF9108952D
:101E90000F931F93DF93CF9300D00F92CDB7DEB790
:101EA0009B838A8319828981282F30E08A819B81D4
:101EB0008C01020F131F0E94100FF80180830FC0C6
:101EC00089818F5F89838981282F30E08A819B8176
:101ED0008C01020F131F0E94100FF801808389816B
:101EE000282F30E08A819B81FC01E20FF31F808163
:101EF000833231F78981282F30E08A819B81FC0170
:101F0000E20FF31F10820F900F900F90CF91DF918F
:101F10001F910F910895AA1BBB1B51E107C0AA1F77
:101F2000BB1FA617B70710F0A61BB70B881F991F7A
:101F30005A95A9F780959095BC01CD010895A1E22D
:101F40001A2EAA1BBB1BFD010DC0AA1FBB1FEE1F33
:101F5000FF1FA217B307E407F50720F0A21BB30B7E
:101F6000E40BF50B661F771F881F991F1A9469F7FA
:101F700060957095809590959B01AC01BD01CF0156
:101F800008952F923F924F925F926F927F928F921D
:101F90009F92AF92BF92CF92DF92EF92FF920F93F8
:101FA0001F93CF93DF93CDB7DEB7CA1BDB0B0FB602
:101FB000F894DEBF0FBECDBF09942A8839884888BF
:101FC0005F846E847D848C849B84AA84B984C88455
:101FD000DF80EE80FD800C811B81AA81B981CE0F4C
:101FE000D11D0FB6F894DEBF0FBECDBFED01089531
:101FF000FB01DC018D91019080190110D9F3990B3F
:062000000895F894FFCFE3
:102006000000000000000000030000802500000022
:0C20160000E1E4050400001BB705040015
:00000001FF
